:100000000C9499000C94BA000C94BA000C94BA00A9
:100010000C94BA000C94B80B0C941C120C94BA00FB
:100020000C94BA000C94BA000C94BA000C94BA0068
:100030000C94BA000C94BA000C94BA000C94BA0058
:100040000C94BA000C947D010C94BA000C94BA0084
:100050000C94BA000C94BA000C94BA000C94BA0038
:100060000C94BA000C94BA000C94BA000C94BA0028
:100070000C94BA000C94BA000C94BA000C94BA0018
:100080000C9445120C94BA000C94BA000C94BA006B
:100090000C940D100C94BA000C94BA000C94BA0095
:1000A0000C94BA000C94BA000C94BA000C94BA00E8
:1000B0000C94BA000C94BA000C94BA000C94BA00D8
:1000C0000C94BA000C94BA000C94BA000C94BA00C8
:1000D0000C94BA000C94BA000C94BA000C94BA00B8
:1000E0000C94BA007C06E305B50587056B054B0645
:1000F0007C060C94050E0C94F70C0C94600C0C947C
:10010000670C0C940D0F0C94E3050C947C060C9476
:10011000B5050C944B060C946E0C0C9487050C944E
:10012000B70C0C94BC000C94DD0C0C946B050C9477
:100130006F0111241FBECFEFD1E2DEBFCDBF00E0C3
:100140000CBF12E0A0E0B2E0E2EAFCE200E00BBF8C
:1001500002C007900D92AA33B107D9F72CE0AAE3A9
:10016000B2E001C01D92AB39B207E1F70E94231340
:100170000C944F160C940000FFCFFF93FCB7FF9335
:10018000FFB7F894FF93EF93DF93CF93BF93AF93B1
:100190009F938F937F936F935F934F933F932F938F
:1001A0001F930F93FF92EF92DF92CF92BF92AF9285
:1001B0009F928F927F926F925F924F923F922F9277
:1001C0001F920F928DB79EB790932B0C80932A0CA1
:1001D000E0912C0CF0912D0CF395808191819EBFC4
:1001E0008DBF0F901F902F903F904F905F906F901A
:1001F0007F908F909F90AF90BF90CF90DF90EF90C7
:10020000FF900F911F912F913F914F915F916F91AF
:100210007F918F919F91AF91BF91CF91DF91EF919E
:10022000FF91FFBFFF91FCBFFF910895FF93FCB7C3
:10023000FF93FFB7F894FF93EF93DF93CF93BF93B0
:10024000AF939F938F937F936F935F934F933F935E
:100250002F931F930F93FF92EF92DF92CF92BF9253
:10026000AF929F928F927F926F925F924F923F9246
:100270002F921F920F92E0912C0CF0912D0C8DB7C4
:100280009EB7F3959183808380912A0C90912B0CDB
:100290009EBF8DBF0F901F902F903F904F905F900B
:1002A0006F907F908F909F90AF90BF90CF90DF9096
:1002B000EF90FF900F911F912F913F914F915F9180
:1002C0006F917F918F919F91AF91BF91CF91DF916E
:1002D000EF91FF91FFBFFF91FCBFFF910895CF9376
:1002E000CFB7F89483E090E090937E0280937D02F4
:1002F0000E941601CFBFCF910895FF93FCB7FF93E3
:10030000FFB7F894F068FF93EF93DF93CF93BF9319
:10031000AF939F938F937F936F935F934F933F938D
:100320002F931F930F93FF92EF92DF92CF92BF9282
:10033000AF929F928F927F926F925F924F923F9275
:100340002F921F920F92E0912C0CF0912D0C8DB7F3
:100350009EB7F3959183808380912A0C90912B0C0A
:100360009EBF8DBF81E090E090937E0280937D02DE
:10037000E8E8F0E080819181805F984D91838083EF
:1003800080915E0290915F02805F984D90935F0232
:1003900080935E0280915C0290915D02059690933D
:1003A0005D0280935C0280912A0C90912B0C9EBF81
:1003B0008DBF0F901F902F903F904F905F906F9048
:1003C0007F908F909F90AF90BF90CF90DF90EF90F5
:1003D000FF900F911F912F913F914F915F916F91DE
:1003E0007F918F919F91AF91BF91CF91DF91EF91CD
:1003F000FF91FFBFFF91FCBFFF91089580915C02C8
:1004000090915D02209184003091850040915E02C0
:1004100050915F02241B350B203D47E0340778F0F4
:10042000203A4FE0340748F0203747E1340758F0CE
:1004300020343F4130F001970895049708950597BF
:1004400008950297089503970895F894279A809144
:10045000000230910002823008F47AC0315020E866
:1004600025B980910002823008F465C088E29FE7D8
:1004700048E351E0915040405040E1F700C0000097
:100480008150A9F715B884E16FE798E341E0615026
:1004900090404040E1F700C000008150A9F725B925
:1004A00088E25FE768E391E0515060409040E1F7F7
:1004B00000C000008150A9F715B88CE34FE758E35E
:1004C00061E0415050406040E1F700C000008150C1
:1004D000A9F73323F1F090E025B98AE04FE758E31C
:1004E00061E0415050406040E1F700C000008150A1
:1004F000A9F715B88AE04FE758E361E04150504052
:100500006040E1F700C000008150A9F79F5F93139E
:10051000E3CF84E19FE748E351E0915040405040F1
:10052000E1F700C000008150A9F725B980910002D1
:10053000823008F09BCF84E64FE758E361E04150FA
:1005400050406040E1F700C000008150A9F7B4CFEF
:100550003F5F85CF80913A02883088F491E0980F10
:1005600090933A0290E0880F991F880F991F855C3D
:100570009D4FFC011182108213821282089581E046
:10058000809300020E9425024F925F926F927F92A9
:100590008F929F92AF92BF92CF92DF92EF92FF9293
:1005A0000F931F93CF93DF932C01DC012D913C918E
:1005B00011972115310509F47AC0F901E15FFE4F69
:1005C000808191818D939C931182108280902C0C5C
:1005D00090902D0C00916002109161027090620267
:1005E000609063028091680290916902A0906A0213
:1005F000B0906B02C12CD12C52E0E52EF12CB4EF5F
:100600008B1ABEEF9B0A0FC0E201288139812115A8
:100610003105D9F1F901E15FFE4F408151815983E4
:10062000488311821082D901A85FBE4F4D915C9121
:1006300011974330510541F7A9014F5E5E4FEA0122
:1006400048815981EA01798368831196FC92EE9280
:1006500014964C914330E1F1413009F065C091832B
:100660008083F901E35FFE4F11821082009709F445
:1006700047C0FC01E35FFE4F31832083C901E201E3
:10068000288139812115310529F6109361020093E3
:10069000600270926202609263029093690280939A
:1006A0006802A0926A02B0926B02CD2861F5DF91D8
:1006B000CF911F910F91FF90EF90DF90CF90BF905F
:1006C000AF909F908F907F906F905F904F90089524
:1006D000D4014C91433019F0CC24C394D12C118314
:1006E0000083F901E35FFE4F1182108201151105AD
:1006F000B1F0F801E35FFE4F31832083890184CF9D
:100700005901C90181CFCFB7F89485E090E090936B
:100710007E0280937D020E941601CFBFC8CF722E49
:10072000632E022F132F70CF10936102009360028B
:1007300070926202609263029093690280936802F1
:10074000A0926A02B0926B0289E0809300020E943C
:10075000250280916C0290916D02009709F4E0C02F
:1007600020917602223009F470C020917602222373
:1007700009F4FAC0FC01E15FFE4F20813181309322
:100780006D0220936C02118210829C0129523F4F0E
:10079000F90140E041934F5F4F31E1F745E5FC013E
:1007A000EA50FF4F40834EEE319640837E97108291
:1007B00040E87F96408332961082409172025091B9
:1007C00073023196508340917202509173023196B8
:1007D0004083319610824FE651E031965083319636
:1007E000408331963183208322E030E03896318394
:1007F00020832091740230917502329631832083D8
:1008000020917602329620832091770230917802EF
:100810003A97318320832091790230917A0232967F
:100820003183208320917B0230917C023296318388
:10083000208320917602223009F452C0233099F1AE
:10084000213099F081E090E0089540917702509135
:1008500078022091790230917A024217530708F00A
:1008600084CF109200020E942502FC01E15FFE4F3E
:100870001182108232971182108220916802309189
:100880006902232B09F465C0E0916A02F0916B02C2
:10089000E15FFE4F9183808390936B0280936A02A5
:1008A00081E090E00895FC01E15FFE4F118210822B
:1008B0003297118210822091600230916102232BC5
:1008C000E9F1E0916202F0916302E15FFE4F9183F2
:1008D0008083909363028093620281E090E00895A8
:1008E000FC01E15FFE4F118210823297118210826B
:1008F0002091640230916502232BA9F020916602B9
:1009000030916702D901A15FBE4F8D939C933183D3
:100910002083909367028093660281E090E00895BF
:1009200080E090E008959093650280936402909334
:1009300067028093660281E090E0089590936102DF
:1009400080936002909363028093620281E090E062
:100950000895909369028093680290936B0280934C
:100960006A0281E090E0089587E19BE00ECF8091DC
:100970008100826080938100E7E8F3E011821082B9
:10098000CF010B9690878783ED5EFE4F8BE0EC30B6
:10099000F807A1F71092140B1092130BCFE7D2E0D7
:1009A000D0936D02C0936C0284E09AE090936F0242
:1009B00080936E028CEB90E09093730280937202AE
:1009C000109276020E94A9038DE09FE0909373023B
:1009D0008093720283E0809376020E94A903D093F1
:1009E0002D0CC0932C0C81E090E0909388038093B1
:1009F00087038091600290916102009759F0FC0199
:100A0000E15FFE4F8081918190936102809360024B
:100A10001182108210925D0210925C0280916F0030
:100A2000826080936F008091840090918500909304
:100A30005F0280935E0280915E0290915F02805F10
:100A4000984D909389008093880082E086BB109235
:100A50003A0240912C0C50912D0CC1E0D0E067E19E
:100A6000E62E6BE0F62E02E010E0FA01E85FFE4FA2
:100A700080819181019709F446C080916002909134
:100A80006102009709F44DC1FC01E15FFE4F208136
:100A90003181309361022093600211821082909321
:100AA0002D0C80932C0CFC01E85FFE4FD183C0839A
:100AB0000E94BD0080917D0290917E028730910559
:100AC00028F086E0809300020E942502FC01EE5887
:100AD000FF4F0C945B1340912C0C50912D0CFA019C
:100AE000E85FFE4F80819181019709F40AC110925D
:100AF0007E0210927D02FA01E85FFE4F80819181B3
:100B0000019709F0BACF47515B4091F6B6CF4091BB
:100B10002C0C50912D0CABE047315A0741F3FA01F0
:100B2000E85FFE4F1182108234968081823009F492
:100B30007AC131966F01329611821082F6011182CC
:100B4000108280916C0290916D02892B09F4CFC1C3
:100B5000E0916E02F0916F02E15FFE4F518340839E
:100B600050936F0240936E02C2CF0E94A9039093EC
:100B70007102809370028091700290917102892BB2
:100B800009F418C28091760240912C0C50912D0CE2
:100B9000833009F40AC1FA01E45FFE4F808181309D
:100BA00009F0A5CF80917602823009F495C1FA014F
:100BB000E85FFE4F80819181029709F098CFFA019A
:100BC000E15FFE4F4FC02091640230916502409179
:100BD0002C0C50912D0CFA01E45FFE4F6081211521
:100BE000310591F180915B026330D1F081508093A7
:100BF0005B0280915B02811113C0623089F484E052
:100C0000809300020E9425024217530709F0A5C1F4
:100C1000F901E15FFE4F2081318121153105A1F0FD
:100C2000F901EA5FFE4F8081918101979183808372
:100C3000892B71F7623041F3F901E15FFE4F2081AA
:100C400031812115310561F7613009F050CFFA018A
:100C5000E85FFE4F80819181019709F048CF1183B1
:100C60000083379611821082329711821082809110
:100C7000680290916902892B09F425C1E0916A020A
:100C8000F0916B02E15FFE4F5183408350936B0202
:100C900040936A022CCF40912C0C50912D0CFA01FC
:100CA000E85FFE4F80819181019709F020CFDA0142
:100CB000A45FBE4F8C91833009F419CF1183008358
:100CC000823009F41DC18091680290916902FA0195
:100CD000E15FFE4F918380833297118210820097EB
:100CE00009F4F1C0FC01E35FFE4F51834083509350
:100CF000690240936802FBCE40912C0C50912D0C60
:100D0000F6CEDA01A45FBE4F8C91823009F4D8C0D0
:100D1000833009F46BC0813009F4B5C011830083BE
:100D2000E6CE8091640290916502009709F4F8C0C4
:100D300040E050E007C0FC01E15FFE4F80819181FF
:100D4000009799F0FC01EA5FFE4F20813181121675
:100D500013068CF3452B09F000C1AC01FC01E15FE7
:100D6000FE4F80819181009769F74115510509F483
:100D7000D7C050932D0C40932C0CFA01EA5FFE4F24
:100D800080819181DA01AE5FBE4F2D913C91820F3F
:100D9000931F9183808380915B02811125C03297DC
:100DA000808180935B02CA017ECEFA01E45FFE4F30
:100DB0008081833009F49BCE349711830083823085
:100DC00009F0E9CE329780819181DA01AE5FBE4FA2
:100DD0002D913C91821B930B9183808380915B02C8
:100DE0008F5F80935B02D7CECA015DCEDA01A15F2F
:100DF000BE4F11961C921E9212971D921C928091CA
:100E0000600290916102892B09F4ACC0A09162024A
:100E1000B0916302A15FBE4F4D935C935093630208
:100E2000409362027BCF80916602909167024817DF
:100E3000590709F4A0C0CA01835F9E4F6C018091DD
:100E4000640290916502FA014817590709F4A9C094
:100E5000E15FFE4FD6018D919C91009741F060813A
:100E600071819C01215F3E4FD9016D937C9320815C
:100E700031812115310509F45FCE235F3E4FD90141
:100E80008D939C9359CEDA01A15FBE4F11961C92AF
:100E90001E9212971D921C92809168029091690295
:100EA000892B09F475C0A0916A02B0916B02A15F11
:100EB000BE4F4D935C9350936B0240936A022ECFCA
:100EC00010925B022BCF50936902409368025093BB
:100ED0006B0240936A020BCE80917B0290917C0260
:100EE000892B09F064CE34971183008368CE509328
:100EF0006D0240936C0250936F0240936E02F7CDE7
:100F00003297808191811A972D913C91821B930B8E
:100F10009183808380915B028F5F80935B02E7CD3A
:100F20008091680290916902009781F0FC01E15F75
:100F3000FE4F208131813093690220936802118233
:100F4000108290932D0C80932C0CADCDF0922D0C33
:100F5000E0922C0C87E19BE0A6CD87E08093000215
:100F60000E942502509361024093600250936302F5
:100F700040936202D3CE6A0193EFC91A9EEFD90A59
:100F8000D6018D919C91909367028093660257CF12
:100F9000509369024093680250936B0240936A0237
:100FA000BDCEE15FFE4F8081918190936502809379
:100FB000640250CF83E0809300020E942502CF9309
:100FC000CFB7F89490937302809372027093750276
:100FD0006093740283E08093760282E090E09093C5
:100FE0007E0280937D020E94160180917002909192
:100FF0007102CFBFCF910895CF93CFB7F89490935C
:10100000730280937202709375026093740281E0A0
:101010008093760282E090E090937E0280937D023E
:101020000E9416018091700290917102CFBFCF9102
:1010300008950F931F93CF93CFB7F89490937302B3
:1010400080937202709375026093740282E08093C1
:101050007602509378024093770230937A0220937D
:10106000790210937C0200937B0282E090E09093DF
:101070007E0280937D020E94160180917002909101
:101080007102CFBFCF911F910F910895CF93DF933E
:101090001F92CDB7DEB78FB78983F89484E090E0D4
:1010A00090937E0280937D020E94160189818FBFFA
:1010B0000F90DF91CF910895FC0120912C0C30917D
:1010C0002D0CD901A45FBE4F8C91823031F1D90132
:1010D000A15FBE4F11961C921E9212971D921C92F8
:1010E00080819181892BA1F0A281B381A15FBE4F44
:1010F0002D933C9333832283F901E85FFE4F83E015
:1011000090E0918380833996718360830C944608C4
:101110003183208333832283EFCF88E080930002E2
:101120000E9425022FB7F894E0912C0CF0912D0C21
:10113000E65FFE4F808191812FBF089584B1807F4B
:1011400084B984B1876084B9289A80E58CBD81E038
:101150008DBD28980895442371F0282FDB01FC01F0
:1011600081918EBD0DB407FEFDCF8EB58D938E2F70
:10117000821B8417A8F30895662359F0282FFC01D9
:1011800081918EBD0DB407FEFDCF8E2F821B861779
:10119000B8F308958EBD0DB407FEFDCF8EB508954A
:1011A000CF93DF93C2E0D1E088818F7B88838FEF7C
:1011B0000E94CA08988190649883DF91CF91089526
:1011C000CF92DF92FF920F931F93CF93DF931F92E3
:1011D000CDB7DEB78B0192E0C92EDD24D394F601A2
:1011E00090819F7B90838F71806249830E94CA089F
:1011F000F82E4981642FC8010E94BC08F601908135
:10120000906490838F2D0F90DF91CF911F910F915C
:10121000FF90DF90CF900895EF92FF920F931F936E
:10122000CF93DF931F92CDB7DEB78B017A019091F8
:1012300002019F7B9093020129830E94CA082981A1
:10124000222341F0E114F10491F0422FB701C801CB
:101250000E94AB08809102018064809302010F908C
:10126000DF91CF911F910F91FF90EF900895622F22
:10127000C8010E94BC08EECFEF92FF921F93CF935C
:10128000DF931F921F92CDB7DEB79FEFFB019083D4
:1012900022E0E22EFF24F394F70190819F7B90835C
:1012A0008F7169837A830E94CA08182F41E069818F
:1012B0007A8180E090E00E94AB08F7019081906411
:1012C0009083812F0F900F90DF91CF911F91FF900E
:1012D000EF900895CF93DF931F92CDB7DEB7BE0195
:1012E0006F5F7F4F80E00E943C09898180FD15C0BF
:1012F0008160898341E0BE016F5F7F4F80E00E9483
:10130000E00883E091E00197F1F700C0000083E07E
:1013100091E00197F1F700C000000F90DF91CF91AD
:1013200008951F93CF93DF931F92CDB7DEB7182F89
:1013300010922E0CE1E0F1E0908198619083A2E0A0
:10134000B1E09C919F7E9C939C91977F9C939C91F4
:101350009F7D9C9390819062908390819064908314
:101360006C98EAE6F0E090819260908390819E7F95
:101370009083EC9AE49A8FED9BEA0197F1F700C015
:1013800000000E949E0883E0898341E0BE016F5FF8
:101390007F4F0E94E00885E1898341E0BE016F5FD5
:1013A0007F4F84E00E94E008198341E0BE016F5F37
:1013B0007F4F85E00E94E00889E0898341E0BE011B
:1013C0006F5F7F4F86E00E94E0088FE0898341E0F5
:1013D000BE016F5F7F4F80E00E94E00880E7898355
:1013E00041E0BE016F5F7F4F87E00E94E00820E090
:1013F00040E050E060E070E081EE0E940C0920E0E7
:1014000040E050E060E070E082EE0E940C098FE363
:101410009FE10197F1F700C00000E2E0F1E0808178
:10142000806280838081806180830F90DF91CF9183
:101430001F910895CF92DF92EF92FF920F931F9327
:10144000CF93DF931F92CDB7DEB78C016A01863050
:10145000910508F045C0009709F44CC08130910512
:1014600009F473C041E08AE0800F0E94E008BE01E9
:101470006F5F7F4F81E00E943C09EE24E394F12CE2
:10148000002E01C0EE0C0A94EAF789818E29898327
:1014900041E0BE016F5F7F4F81E00E94E008CD28F0
:1014A000D9F180E2898341E0BE016F5F7F4F81E126
:1014B000800F0E94E0088981F801E35DFD4F808381
:1014C000BE016F5F7F4F82E00E943C0989818E29B7
:1014D000898341E0BE016F5F7F4F82E00E94E00898
:1014E0000F90DF91CF911F910F91FF90EF90DF90C0
:1014F000CF900895FB0180818093230281818093A6
:101500002402828180932502838180932602848134
:101510008093270245E0A7CF198241E0BE016F5FAB
:101520007F4F81E1800F0E94E0088981F801E35D2F
:10153000FD4F8083BE016F5F7F4F82E00E943C09B8
:10154000E09489818E218983C4CF45E08CCFFC0152
:1015500080818093280281818093290282818093F7
:101560002A02838180932B02848180932C0245E0A0
:10157000BF0180E10C94E008EF92FF920F931F935C
:10158000CF93DF931F92CDB7DEB77C018B01643020
:10159000710520F482E0E816F10440F00F90DF912D
:1015A000CF911F910F91FF90EF900895BE016F5F53
:1015B0007F4F86E00E943C09000F898186600823E6
:1015C000EF2809F00860098341E0BE016F5F7F4F9B
:1015D00086E00E94E008E2CFEF92FF920F931F9304
:1015E000CF93DF931F92CDB7DEB77C018B0181E0F3
:1015F00080932E0C809102018F7D80930201BE01A9
:101600006F5F7F4F80E00E943C09898180FF15C099
:101610008E7F898341E0BE016F5F7F4F80E00E9433
:10162000E00883E091E00197F1F700C0000083E05B
:1016300091E00197F1F700C0000045E068E272E038
:101640008AE00E94E0088091020188608093020194
:1016500020E240E050E0B70180EA0E940C0980914E
:101660000201806280930201012B81F480912E0C93
:101670008111FCCF80911F02909120020F90DF9189
:10168000CF911F910F91FF90EF90089581E00F90FF
:10169000DF91CF911F910F91FF90EF900895CF931D
:1016A000DF93EC0110922E0C809102018F7D8093CC
:1016B00002010E94D0088E70282F30E035952795C2
:1016C000F901E35DFD4F8081813280F42730D1F054
:1016D0002081AE01BE0181E60E940C090E94D00863
:1016E0008E708E3091F083E090E002C080E090E058
:1016F0002091020120622093020110922E0CDF91B2
:10170000CF91089582E090E0F3CF84E090E0F0CFB5
:1017100080912102909122020097C1F040E080FD6B
:101720004F5F969587950097D1F720E130E0241B15
:10173000310944E6429FC001439F900D11249295C8
:1017400082958F7089279F708927089584E6089570
:1017500020E040E050E060E070E081EE0E940C0983
:1017600020E040E050E060E070E082EE0C940C0974
:101770001F920F920FB60F9211240BB60F922F9358
:101780003F934F935F936F937F938F939F93AF9309
:10179000BF93EF93FF93CF93DF931F92CDB7DEB745
:1017A000809102018F7E80930201809102018F7DE2
:1017B000809302010E94D008898386FD6DC085FF59
:1017C0004AC010922E0C80912D0281116BC00E9494
:1017D0006A098091210290912202880F991F9093AB
:1017E0002202809321028091210290912202816045
:1017F000909322028093210281E090E09093200256
:1018000080931F0280E7898341E0BE016F5F7F4FB5
:1018100087E00E94E00880910201806180930201CC
:10182000809102018062809302010F90DF91CF913D
:10183000FF91EF91BF91AF919F918F917F916F91A8
:101840005F914F913F912F910F900BBE0F900FBE64
:101850000F901F90189584FFD5CF20E040E050E016
:1018600060E070E081EE0E940C0910922E0C8091D5
:101870002D0281111EC00E946A098091210290915F
:101880002202880F991F90932202809321021092C6
:10189000200210921F02B6CF8E7086950E948F0F85
:1018A00089818DCF45E063E272E08AE00E94E00822
:1018B0008ECF45E063E272E08AE00E94E008DBCF71
:1018C0009091C00095FFFCCF8093C6000895909141
:1018D000C80095FFFCCF8093CE000895CF93DF938F
:1018E000CDB7DEB7A2970FB6F894DEBF0FBECDBF5F
:1018F000279A15B885E0F82EBE016F5D7F4F809165
:10190000550C9091560C0E945C0810C090918F0C61
:1019100091FD2AC0891739F091838091900C9091A4
:10192000910C0E94C4020330110531F7CE010196DB
:101930000E944F0B8C0103970297F0F68981811169
:10194000F2CFFE013496A7E5BCE08F2D01900D92F9
:101950008A95E1F76091370270913802FB01E95AEC
:10196000F34F818181FFD2CF80938F0CDCCFCF9357
:10197000DF93CDB7DEB7A2970FB6F894DEBF0FBEE8
:10198000CDBF009137028AE192E00E94A70A11E0E0
:10199000BE016F5D7F4F8091900C9091910C0E94E1
:1019A0005C0880918F0C19830C838D8361E070E05B
:1019B000CE0101960E94EC0AEBCF2698C0E0D0E061
:1019C00011E00DC0209781F480918F0C81FD05C03E
:1019D000812780938F0CC1E0D0E00E9446081E9BB7
:1019E000F1CFC0E0D0E0F9CFC1E0D0E0F6CF109267
:1019F000930C1092920C1092950C1092940C00E0A3
:101A000010E0C0E0D0E094E6A92EB12CE12C20E853
:101A1000F22E3CE2432E5524539466246394712C99
:101A20005AEF252E312CCC24CA94DC2C78EC872E4E
:101A3000912C17C0813008F448C0823081F4809125
:101A40008F0C80FD4FC0D0929A0CC092990C90924E
:101A5000980C8092970C1092960CC0E0D0E00E94F7
:101A600046088091570C813029F790918F0C90FD9A
:101A700049C0C130D10509F46CC008F47FC0C23040
:101A8000D10509F4ABC0C330D10509F04EC0309286
:101A9000980C2092970CD0929A0CC092990C80933B
:101AA000960C8091940C9091950C863C9240ECF1B0
:101AB0001092950C1092940C1092930C1092920C20
:101AC00000E010E0C0E0D0E0CACFF0929A0CE092C3
:101AD000990C1092980C1092970C1092960CC0E0F2
:101AE000D0E0BDCF0115110519F570929A0C6092E6
:101AF000990CB092980CA092970C01E010E0C0E015
:101B0000D0E0ADCF1092980C1092970C10929A0CD6
:101B10001092990C1092960C00E010E0C2E0D0E018
:101B20009ECF80917A0C81113FC000E010E097CFEA
:101B30008091940C9091950C8A3091050CF441C0E1
:101B400070929A0C6092990CB092980CA092970C9B
:101B500082CFB092980CA092970CD0939A0CC0931D
:101B6000990C8093960C8091940C9091950C8D3FDC
:101B70009E4F0CF49DCF00E010E071CFF0929A0CD4
:101B8000E092990C5092980C4092970C1092960CFF
:101B90008091920C9091930C893E93402CF480910B
:101BA0005C0C837009F4BDCF1092950C1092940CCC
:101BB0001092930C1092920C00E010E0C1E0D0E083
:101BC0004ECF873F9F4F0CF046CFD0929A0CC092D9
:101BD000990CB092980CA092970C3DCF1092980C53
:101BE0001092970C10929A0C1092990C1092960CDD
:101BF0001092950C1092940C1092930C1092920CDF
:101C000000E010E0C3E0D0E02ACFC0E0D0E003E085
:101C100010E01EC0C230D10509F451C0209711F167
:101C20000E942502CE010196B8010E942513EC0105
:101C30008091990C90919A0C66277727681B790BF5
:101C40008091970C9091980C0E94C1110E944608B7
:101C5000C130D105F9F66CE57CE081E090E00E94AE
:101C60007C10E0CF6CE57CE082E090E00E947C108C
:101C70008091920C9091930C88589F4F9093930C65
:101C80008093920C80916A0C90916B0C9C01220FB6
:101C9000331F280F391F8091940C9091950C820F5F
:101CA000931F9093950C8093940C8091960C8823AD
:101CB00009F4B8CF809135020E94CC12B3CF6CE505
:101CC0007CE085E690E00E947C10ACCF9B01AC01EB
:101CD00060E472E48FE090E00E94391321503109F2
:101CE0003093C5002093C40088E18093C10008951B
:101CF0009B01AC0160E472E48FE090E00E94391334
:101D0000215031093093CD002093CC0088E180939D
:101D1000C90008958091C00087FFFCCF8091C60064
:101D200008958091C80087FFFCCF8091CE00089570
:101D3000009741F0019719F487E69CE0089580E050
:101D400090E0089580E69CE00895FF920F931F9322
:101D5000CF93DF93CDB7DEB764970FB6F894DEBFAD
:101D60000FBECDBF0D8D1E8D9E012F5D3F4F4F8D40
:101D700058A163E170E0CE0101960E947513011530
:101D8000110521F101301105F1F000E010E0898129
:101D9000882369F0F12CF394F8011995A1E0B0E0E3
:101DA000AC0FBD1FAF0DB11D8C918111F4CF6496A6
:101DB0000FB6F894DEBF0FBECDBFDF91CF911F915C
:101DC0000F91FF90089507E61CE0E1CF00E61CE0CC
:101DD000DECFEF92FF920F931F93CF93DF93E62E08
:101DE0000097C1F0019799F000E010E0EE2041F07B
:101DF000EA01F12C8991F8011995F394FE10FACFBC
:101E0000DF91CF911F910F91FF90EF90089507E61A
:101E10001CE0ECCF00E61CE0E9CF0F931F93EAE053
:101E2000F1E0808184608083EBE0F1E080818B7F52
:101E300080832FEF89E698E1215080409040E1F7C0
:101E400000C000008081846080832FEF89E698E1E4
:101E5000215080409040E1F700C0000080910502D1
:101E60000E9491098091370290913802BC01660F5F
:101E7000771F660F771F680F791F6A5F7D4F41E0FC
:101E800050E080E090E00E941A0A63E070E080E099
:101E900090E00E94BC0A0E94E3110E943D10109243
:101EA000980C1092970C10929A0C1092990C0E9418
:101EB000AA029093560C8093550C0E94AA0290930C
:101EC000910C8093900C87B18FEF87B960E070E040
:101ED0008EE69CE00E94DF0760E070E087EB9CE00C
:101EE0000E94DF0708EC10E028E030E044E150E019
:101EF00060E070E085E09EE00E94190860E070E01C
:101F00008DED9CE00E94FC0760E070E087EF9CE0B4
:101F10000E94FC0780E090E01F910F910895682FC8
:101F200070E08091550C9091560C0C94C4020E9464
:101F3000201390918F0C91FD15C090E020913502F7
:101F4000309136028217930771F02091330230915D
:101F500034028217930781F08FE99FE00197F1F730
:101F600000C00000089585B1805885B980918F0C1C
:101F70008E7F80938F0CF0CF85B1805885B980918A
:101F80008F0C816080938F0CE7CF9091C80095FFF4
:101F9000FCCF8093CE0008953FB7F8942091650060
:101FA0002E7F209365008130910551F110F1823030
:101FB0009105C1F00397B1F488E090E09093CD00D3
:101FC0008093CC0080E48093C80088E98093C900A6
:101FD00086E08093CA008091C8008D7F8093C800FE
:101FE0003FBF089580E190E09093CD008093CC00B6
:101FF000E9CF83E390E09093CD008093CC00E2CFD3
:1020000089E190E09093CD008093CC00DBCF80916C
:102010002F0C089510922F0C08951F920F920FB657
:102020000F9211240BB60F928F939F93EF93FF9310
:10203000E0912F0CF0E08091CE00E05DF34F8083C3
:1020400080912F0C90E001968F71992780932F0C2F
:10205000FF91EF919F918F910F900BBE0F900FBE4C
:102060000F901F901895803291052CF4FC01E05DD3
:10207000F34F8081089580E0089583E090E00E940E
:10208000CC0F80E80E94C50F2FEF89EF90E0215020
:1020900080409040E1F700C0000081E80E94C50F39
:1020A00087E00E94C50F2FEF81EE94E02150804021
:1020B0009040E1F700C0000080E090E00E94CC0F6B
:1020C00080E80E94C50F2FEF89EF90E021508040FB
:1020D0009040E1F700C0000083E80E94C50F2FEF99
:1020E00089EF90E0215080409040E1F700C000006F
:1020F00008958DEA0C94C50F0F931F93CF93DF9330
:102100008C01EB018EE80E94C50F802F0E94C50F45
:102110000230110509F491C008F4F3C00330110531
:1021200009F4B3C00536110509F081C00E940710FB
:102130008C31E1F780E090E00E9433108B8F81E0DA
:1021400090E00E9433108A8F82E090E00E9433106A
:102150008D8F83E090E00E9433108C8F84E090E0BC
:102160000E9433108E8F85E090E00E94331088A388
:1021700086E090E00E9433108F8F87E090E00E940D
:1021800033108AA388E090E00E94331089A389E08D
:1021900090E00E9433108CA38AE090E00E943310FC
:1021A0008BA38BE090E00E9433108EA38CE090E034
:1021B0000E9433108DA38DE090E00E94331088A719
:1021C0008EE090E00E9433108FA38FE090E00E9499
:1021D00033108AA780E190E00E94331089A781E143
:1021E00090E00E9433108CA782E190E00E943310AF
:1021F0008BA783E190E00E9433108EA784E190E0EA
:102200000E9433108DA785E190E00E94331088ABC7
:1022100086E190E00E9433108FA787E190E00E9452
:1022200033108AAB88E190E00E94331089ABDF91D4
:10223000CF911F910F910C940A100E9407108630C5
:10224000E1F780E090E00E9433108A8781E090E01F
:102250000E9433108B8782E090E00E9433108D87BC
:1022600083E090E00E9433108C8784E090E00E942D
:1022700033108F8785E090E00E9433108E87DF91C6
:10228000CF911F910F910C940A100E9407108A3071
:10229000E1F780E090E00E943310888B81E090E0CD
:1022A0000E9433108A8B82E090E00E943310898B69
:1022B00083E090E00E9433108C8B84E090E00E94D9
:1022C00033108B8B85E090E00E9433108D8B86E07D
:1022D00090E00E9433108F8B87E090E00E943310D3
:1022E0008E8B88E090E00E943310898F89E090E027
:1022F0000E943310888FDF91CF911F910F910C9422
:102300000A100130110509F092CF0E9407108A309F
:10231000E1F780E090E00E943310888381E090E054
:102320000E943310898382E090E00E9433108A83F8
:1023300083E090E00E9433108B8384E090E00E9461
:1023400033108C8385E090E00E9433108D8386E00B
:1023500090E00E9433108E8387E090E00E9433105B
:102360008F8388E090E00E943310888789E090E0B6
:102370000E9433108987DF91CF911F910F910C94A8
:102380000A101F93CF93DF9300D0CDB7DEB7182F7D
:1023900089E86B837A8399830E94C50F9981892F7D
:1023A0000E94C50F812F0E94C50F7A81872F0E943E
:1023B000C50F6B81862F0F900F900F90DF91CF91FB
:1023C0001F910C94C50FEAE0F1E080818862808360
:1023D000A0E2B1E01C92E1E2F1E010828C91836016
:1023E0008C938081886180838C91877F8C9380819E
:1023F0008160808385EA91E0909329018093280190
:1024000082ED90E090932D0180932C01109290002A
:10241000E1E9F0E01082808181608083E1E7F0E013
:1024200080818D7F80836D98EAE6F0E080818C600A
:102430008083ED9AE59A08951F920F920FB60F923E
:1024400011248F939F938091540C811117C081E0C8
:102450008093540C1092520C1092510CC19A80919E
:102460009400909195008052914D909399008093A3
:102470009800809171008260809371009F918F918C
:102480000F900FBE0F901F9018951F920F920FB6CE
:102490000F9211240BB60F922F933F934F935F939C
:1024A0006F937F938F939F93AF93BF93EF93FF931C
:1024B0008091540C8823B1F165990EC03091520C73
:1024C0002091510C81E090E0032E01C0880F0A9406
:1024D000EAF7282B2093510C8091520C8F5F809348
:1024E000520C8091980090919900805C904E90934E
:1024F0009900809398008091520C8830B0F4FF913D
:10250000EF91BF91AF919F918F917F916F915F916B
:102510004F913F912F910F900BBE0F900FBE0F90D8
:102520001F9018958091530CEACF1092540C809113
:1025300071008D7F80937100C19AE59A8091510C52
:102540008093500C0E94970FDACFE59AED9A089588
:10255000ED98E1E7F0E080818D7F8083C19A109251
:10256000540C0895E0E2F1E0808188608083429A13
:102570008FEC97E00197F1F700C000000895E0E2CA
:10258000F1E08081877F808342988FEC97E001970C
:10259000F1F700C000000895909120019860909399
:1025A0002001429AEFECF7E03197F1F700C000000C
:1025B00090912001977F909320014298EFECF7E0F3
:1025C0003197F1F700C0000090E020E030E011C04A
:1025D00040912001486040932001429AEFECF7E0DF
:1025E0003197F1F700C000002F5F3F4F28303105D1
:1025F000D1F0AC01022E02C0559547950A94E2F73E
:1026000040FDE6CF40912001477F40932001429852
:10261000EFECF7E03197F1F700C000002F5F3F4F7C
:102620002830310531F780912001877F8093200188
:1026300042988FEC97E00197F1F700C000000895F1
:102640008091500C08950E94B70497FB072E16F452
:10265000009407D077FD09D00E94611307FC05D0D4
:102660003EF4909581959F4F0895709561957F4FA9
:102670000895A1E21A2EAA1BBB1BFD010DC0AA1FC3
:10268000BB1FEE1FFF1FA217B307E407F50720F0DB
:10269000A21BB30BE40BF50B661F771F881F991F56
:1026A0001A9469F760957095809590959B01AC019F
:1026B000BD01CF010895EE0FFF1F0590F491E02DAD
:1026C0001994AA1BBB1B51E107C0AA1FBB1FA61769
:1026D000B70710F0A61BB70B881F991F5A95A9F7CB
:1026E00080959095BC01CD0108950F931F93CF93D2
:1026F000DF93CDB7DEB72E970FB6F894DEBF0FBECF
:10270000CDBF8C01CA0146E04C831A83098377FF51
:1027100002C060E070E8615071097E836D83A90199
:10272000BC01CE0101960E94AE134D815E8157FD22
:102730000AC02F813885421753070CF49A01F8011B
:10274000E20FF31F10822E960FB6F894DEBF0FBE75
:10275000CDBFDF91CF911F910F9108952F923F929E
:102760004F925F926F927F928F929F92AF92BF92A1
:10277000CF92DF92EF92FF920F931F93CF93DF934D
:10278000CDB7DEB72C970FB6F894DEBF0FBECDBF26
:102790007C016B018A01FC0117821682838181FF13
:1027A000BDC1CE0101964C01F7019381F60193FD65
:1027B000859193FF81916F01882309F4ABC1853224
:1027C00039F493FD859193FF81916F01853229F44E
:1027D000B70190E00E94BF15E7CF512C312C20E0CB
:1027E0002032A0F48B3269F030F4803259F0833219
:1027F00069F420612CC08D3239F0803339F42160C6
:1028000026C02260246023C0286021C027FD27C085
:1028100030ED380F3A3078F426FF06C0FAE05F9EBC
:10282000300D1124532E13C08AE0389E300D112430
:10283000332E20620CC08E3221F426FD6BC1206441
:1028400006C08C3611F4206802C0883641F4F601C7
:1028500093FD859193FF81916F018111C1CF982FD5
:102860009F7D9554933028F40C5F1F4FFFE3F9834D
:102870000DC0833631F0833771F0833509F05BC0CA
:1028800022C0F801808189830E5F1F4F4424439446
:10289000512C540115C03801F2E06F0E711CF80183
:1028A000A080B18026FF03C0652D70E002C06FEFED
:1028B0007FEFC5012C870E94B4152C0183012C8564
:1028C0002F77222E17C03801F2E06F0E711CF8012D
:1028D000A080B18026FF03C0652D70E002C06FEFBD
:1028E0007FEFC5012C870E94A9152C012C8520683B
:1028F000222E830123FC1BC0832D90E0481659062D
:10290000B0F4B70180E290E00E94BF153A94F4CF92
:10291000F50127FC859127FE81915F01B70190E0C9
:102920000E94BF1531103A94F1E04F1A510841143A
:10293000510471F7E5C0843611F0893639F5F80194
:1029400027FF07C060817181828193810C5F1F4FD7
:1029500008C060817181882777FD8095982F0E5F70
:102960001F4F2F76B22E97FF09C0909580957095D6
:1029700061957F4F8F4F9F4F2068B22E2AE030E045
:10298000A4010E94F115A82EA81844C0853729F487
:102990002F7EB22E2AE030E025C0F22FF97FBF2E25
:1029A0008F36C1F018F4883579F0B4C0803719F04B
:1029B000883721F0AFC02F2F2061B22EB4FE0DC09A
:1029C0008B2D8460B82E09C024FF0AC09F2F96600B
:1029D000B92E06C028E030E005C020E130E002C09A
:1029E00020E132E0F801B7FE07C060817181828189
:1029F00093810C5F1F4F06C06081718180E090E081
:102A00000E5F1F4FA4010E94F115A82EA818FB2DE0
:102A1000FF77BF2EB6FE0BC02B2D2E7FA51450F4D2
:102A2000B4FE0AC0B2FC08C02B2D2E7E05C07A2C45
:102A30002B2D03C07A2C01C0752C24FF0DC0FE0184
:102A4000EA0DF11D8081803311F4297E09C022FF37
:102A500006C07394739404C0822F867809F073942F
:102A600023FD13C020FF06C05A2C731418F4530C16
:102A70005718732C731468F4B70180E290E02C8728
:102A80000E94BF1573942C85F5CF731410F437187A
:102A900001C0312C24FF12C0B70180E390E02C87E5
:102AA0000E94BF152C8522FF17C021FF03C088E5B7
:102AB00090E002C088E790E0B7010CC0822F8678D2
:102AC00059F021FD02C080E201C08BE227FD8DE2BA
:102AD000B70190E00E94BF15A51438F4B70180E358
:102AE00090E00E94BF155A94F7CFAA94F401EA0D22
:102AF000F11D8081B70190E00E94BF15A110F5CFB4
:102B0000332009F451CEB70180E290E00E94BF1556
:102B10003A94F6CFF7018681978102C08FEF9FEF3D
:102B20002C960FB6F894DEBF0FBECDBFDF91CF91CC
:102B30001F910F91FF90EF90DF90CF90BF90AF90DB
:102B40009F908F907F906F905F904F903F902F90CD
:102B50000895FC010590615070400110D8F78095F0
:102B600090958E0F9F1F0895FC0161507040019059
:102B70000110D8F7809590958E0F9F1F08950F93A1
:102B80001F93CF93DF93182F092FEB018B8181FDCA
:102B900003C08FEF9FEF20C082FF10C04E815F8186
:102BA0002C813D81421753077CF4E881F9819F0114
:102BB0002F5F3F4F39832883108306C0E885F9854E
:102BC000812F1995892B29F72E813F812F5F3F4F48
:102BD0003F832E83812F902FDF91CF911F910F91F3
:102BE0000895FA01AA27283051F1203181F1E894A3
:102BF0006F936E7F6E5F7F4F8F4F9F4FAF4FB1E0F0
:102C00003ED0B4E03CD0670F781F891F9A1FA11DEA
:102C1000680F791F8A1F911DA11D6A0F711D811DEB
:102C2000911DA11D20D009F468943F912AE0269FB0
:102C300011243019305D3193DEF6CF010895462F0F
:102C40004770405D4193B3E00FD0C9F7F6CF462FF0
:102C50004F70405D4A3318F0495D31FD4052419359
:102C600002D0A9F7EACFB4E0A69597958795779516
:102C70006795BA95C9F700976105710508959B019D
:102C8000AC010A2E06945795479537952795BA9526
:102C9000C9F7620F731F841F951FA01D0895F89434
:022CA000FFCF64
:102CA20002686A6C6E664A4A4A4A4A4A4A4A4A4A2A
:102CB2004A4A4A4A4A4A4A4A4A4AFFFFFFFFFF0132
:102CC20000FF00E7E7E7E7E7E7E7E7E7E7202000BD
:0A2CD2000000004100420001000074
:00000001FF
