:100000000C948F000C94B0000C94B0000C94B000D1
:100010000C94B0000C94AE0B0C94B0000C94B00097
:100020000C94B0000C94B0000C94B0000C94B00090
:100030000C94B0000C94B0000C94B0000C94B00080
:100040000C94B0000C9473010C94B0000C94B000AC
:100050000C94B0000C94B0000C94B0000C94B00060
:100060000C94B0000C94B0000C94B0000C94B00050
:100070000C94B0000C94B0000C94B0000C94B00040
:100080000C94B0000C94B0000C94B0000C94B00030
:100090000C94B0000C94B0000C94B0000C94B00020
:1000A0000C94B0000C94B0000C94B0000C94B00010
:1000B0000C94B0000C94B0000C94B0000C94B00000
:1000C0000C94B0000C94B0000C94B0000C94B000F0
:1000D0000C94B0000C94B0000C94B0000C94B000E0
:1000E0000C94B0007206D905AB057D05610541068B
:1000F00072060C94560C0C94C10C0C94D9050C94FB
:1001000072060C94AB050C9441060C94A10C0C9453
:100110007D050C94B2000C9461050C9465011124CA
:100120001FBECFEFD1E2DEBFCDBF00E00CBF12E0BB
:10013000A0E0B2E0EEEFF9E100E00BBF02C00790F3
:100140000D92A633B107D9F72CE0A6E3B2E001C0C7
:100150001D92AF34B207E1F70E94F50C0C94FD0C30
:100160000C940000FFCFFF93FCB7FF93FFB7F89408
:10017000FF93EF93DF93CF93BF93AF939F938F93AF
:100180007F936F935F934F933F932F931F930F939F
:10019000FF92EF92DF92CF92BF92AF929F928F9297
:1001A0007F926F925F924F923F922F921F920F9287
:1001B0008DB79EB79093270C8093260CE091280C66
:1001C000F091290CF395808191819EBF8DBF0F9096
:1001D0001F902F903F904F905F906F907F908F90E7
:1001E0009F90AF90BF90CF90DF90EF90FF900F91D6
:1001F0001F912F913F914F915F916F917F918F91BF
:100200009F91AF91BF91CF91DF91EF91FF91FFBF90
:10021000FF91FCBFFF910895FF93FCB7FF93FFB7D9
:10022000F894FF93EF93DF93CF93BF93AF939F9394
:100230008F937F936F935F934F933F932F931F936E
:100240000F93FF92EF92DF92CF92BF92AF929F9265
:100250008F927F926F925F924F923F922F921F9256
:100260000F92E091280CF091290C8DB79EB7F39571
:10027000918380838091260C9091270C9EBF8DBF27
:100280000F901F902F903F904F905F906F907F90B6
:100290008F909F90AF90BF90CF90DF90EF90FF90A6
:1002A0000F911F912F913F914F915F916F917F918E
:1002B0008F919F91AF91BF91CF91DF91EF91FF917E
:1002C000FFBFFF91FCBFFF910895CF93CFB7F89484
:1002D00083E090E090937A02809379020E940C016F
:1002E000CFBFCF910895FF93FCB7FF93FFB7F8946A
:1002F000F068FF93EF93DF93CF93BF93AF939F93F8
:100300008F937F936F935F934F933F932F931F939D
:100310000F93FF92EF92DF92CF92BF92AF929F9294
:100320008F927F926F925F924F923F922F921F9285
:100330000F92E091280CF091290C8DB79EB7F395A0
:10034000918380838091260C9091270C9EBF8DBF56
:1003500081E090E090937A0280937902E8E8F0E0FF
:1003600080819181805F984D9183808380915A0232
:1003700090915B02805F984D90935B0280935A024C
:10038000809158029091590205969093590280935A
:1003900058028091260C9091270C9EBF8DBF0F9024
:1003A0001F902F903F904F905F906F907F908F9015
:1003B0009F90AF90BF90CF90DF90EF90FF900F9104
:1003C0001F912F913F914F915F916F917F918F91ED
:1003D0009F91AF91BF91CF91DF91EF91FF91FFBFBF
:1003E000FF91FCBFFF9108958091580290915902AE
:1003F000209184003091850040915A0250915B0217
:10040000241B350B203D47E0340778F0203A4FE0BD
:10041000340748F0203747E1340758F020343F4193
:1004200030F001970895049708950597089502976D
:10043000089503970895F894279A809100023091C7
:100440000002823008F47AC0315020E825B980914A
:100450000002823008F465C088E29FE748E351E07B
:10046000915040405040E1F700C000008150A9F792
:1004700015B884E16FE798E341E061509040404057
:10048000E1F700C000008150A9F725B988E25FE7D5
:1004900068E391E0515060409040E1F700C00000F7
:1004A0008150A9F715B88CE34FE758E361E041505C
:1004B00050406040E1F700C000008150A9F73323AD
:1004C000F1F090E025B98AE04FE758E361E0415050
:1004D00050406040E1F700C000008150A9F715B816
:1004E0008AE04FE758E361E0415050406040E1F757
:1004F00000C000008150A9F79F5F9313E3CF84E110
:100500009FE748E351E0915040405040E1F700C080
:1005100000008150A9F725B980910002823008F0CF
:100520009BCF84E64FE758E361E041505040604084
:10053000E1F700C000008150A9F7B4CF3F5F85CF3D
:1005400080913602883088F491E0980F90933602BB
:1005500090E0880F991F880F991F895C9D4FFC01BF
:100560001182108213821282089581E0809300022A
:100570000E941B024F925F926F927F928F929F9286
:10058000AF92BF92CF92DF92EF92FF920F931F93A1
:10059000CF93DF932C01DC012D913C911197211514
:1005A000310509F47AC0F901E15FFE4F8081918144
:1005B0008D939C93118210828090280C9090290C2E
:1005C00000915C0210915D0270905E0260905F028B
:1005D0008091640290916502A0906602B0906702DB
:1005E000C12CD12C52E0E52EF12CB4EF8B1ABEEFCA
:1005F0009B0A0FC0E2012881398121153105D9F10B
:10060000F901E15FFE4F4081518159834883118296
:100610001082D901A85FBE4F4D915C911197433074
:10062000510541F7A9014F5E5E4FEA0148815981AA
:10063000EA01798368831196FC92EE9214964C91AC
:100640004330E1F1413009F065C091838083F901C5
:10065000E35FFE4F11821082009709F447C0FC014E
:10066000E35FFE4F31832083C901E2012881398194
:100670002115310529F610935D0200935C027092FA
:100680005E0260925F029093650280936402A09282
:100690006602B0926702CD2861F5DF91CF911F917C
:1006A0000F91FF90EF90DF90CF90BF90AF909F9011
:1006B0008F907F906F905F904F900895D4014C91F0
:1006C000433019F0CC24C394D12C11830083F90159
:1006D000E35FFE4F1182108201151105B1F0F801A0
:1006E000E35FFE4F31832083890184CF5901C90123
:1006F00081CFCFB7F89485E090E090937A02809311
:1007000079020E940C01CFBFC8CF722E632E022F38
:10071000132F70CF10935D0200935C0270925E0203
:1007200060925F029093650280936402A0926602D9
:10073000B092670289E0809300020E941B028091C0
:10074000680290916902009709F4E0C0209172025A
:10075000223009F470C020917202222309F4FAC0F9
:10076000FC01E15FFE4F20813181309369022093CB
:100770006802118210829C0129523F4FF90140E02A
:1007800041934F5F4F31E1F745E5FC01EA50FF4FE0
:1007900040834EEE319640837E97108240E87F96EC
:1007A00040833296108240916E0250916F023196D2
:1007B000508340916E0250916F0231964083319682
:1007C000108245E651E03196508331964083319650
:1007D0003183208322E030E03896318320832091DA
:1007E000700230917102329631832083209172021F
:1007F0003296208320917302309174023A973183AC
:1008000020832091750230917602329631832083C5
:1008100020917702309178023296318320832091A3
:100820007202223009F452C0233099F1213099F03C
:1008300081E090E0089540917302509174022091FC
:100840007502309176024217530708F084CF109258
:1008500000020E941B02FC01E15FFE4F1182108228
:100860003297118210822091640230916502232B0D
:1008700009F465C0E0916602F0916702E15FFE4F06
:1008800091838083909367028093660281E090E079
:100890000895FC01E15FFE4F1182108232971182B0
:1008A000108220915C0230915D02232BE9F1E091EE
:1008B0005E02F0915F02E15FFE4F9183808390932F
:1008C0005F0280935E0281E090E00895FC01E15FA9
:1008D000FE4F1182108232971182108220916002A5
:1008E00030916102232BA9F02091620230916302C2
:1008F000D901A15FBE4F8D939C9331832083909348
:1009000063028093620281E090E0089580E090E0CD
:1009100008959093610280936002909363028093A4
:10092000620281E090E0089590935D0280935C0202
:1009300090935F0280935E0281E090E0089590932F
:10094000650280936402909367028093660281E05F
:1009500090E0089583E19BE00ECF8091810082605A
:1009600080938100E3E8F3E011821082CF010B96BF
:1009700090878783ED5EFE4F8BE0E830F807A1F7A4
:100980001092100B10920F0BCBE7D2E0D0936902BC
:10099000C093680280E09AE090936B0280936A02B1
:1009A00082EB90E090936F0280936E02109272023D
:1009B0000E949F0381EC9CE090936F0280936E02F3
:1009C00083E0809372020E949F03D093290CC0930E
:1009D000280C81E090E090938403809383038091BE
:1009E0005C0290915D02009759F0FC01E15FFE4FBF
:1009F0008081918190935D0280935C0211821082CC
:100A0000109259021092580280916F008260809378
:100A10006F00809184009091850090935B02809399
:100A20005A0280915A0290915B02805F984D909398
:100A300089008093880082E086BB10923602409144
:100A4000280C5091290CC1E0D0E063E1E62E6BE068
:100A5000F62E02E010E0FA01E85FFE4F80819181FE
:100A6000019709F446C080915C0290915D02009765
:100A700009F44DC1FC01E15FFE4F208131813093CB
:100A80005D0220935C02118210829093290C809366
:100A9000280CFC01E85FFE4FD183C0830E94B300A5
:100AA0008091790290917A028730910528F086E052
:100AB000809300020E941B02FC01EE58FF4F0C9431
:100AC000F70C4091280C5091290CFA01E85FFE4F79
:100AD00080819181019709F40AC110927A021092E3
:100AE0007902FA01E85FFE4F80819181019709F058
:100AF000BACF43515B4091F6B6CF4091280C50914C
:100B0000290CABE043315A0741F3FA01E85FFE4F8D
:100B10001182108234968081823009F47AC1319634
:100B20006F01329611821082F6011182108280913B
:100B3000680290916902892B09F4CFC1E0916A02A1
:100B4000F0916B02E15FFE4F5183408350936B0243
:100B500040936A02C2CF0E949F0390936D028093DC
:100B60006C0280916C0290916D02892B09F418C27D
:100B7000809172024091280C5091290C833009F425
:100B80000AC1FA01E45FFE4F8081813009F0A5CFF0
:100B900080917202823009F495C1FA01E85FFE4F3C
:100BA00080819181029709F098CFFA01E15FFE4FB1
:100BB0004FC020916002309161024091280C509109
:100BC000290CFA01E45FFE4F60812115310591F196
:100BD000809157026330D1F0815080935702809109
:100BE0005702811113C0623089F484E080930002BF
:100BF0000E941B024217530709F0A5C1F901E15FEA
:100C0000FE4F2081318121153105A1F0F901EA5F04
:100C1000FE4F80819181019791838083892B71F7A9
:100C2000623041F3F901E15FFE4F208131812115EE
:100C3000310561F7613009F050CFFA01E85FFE4FEE
:100C400080819181019709F048CF11830083379605
:100C500011821082329711821082809164029091E9
:100C60006502892B09F425C1E0916602F0916702C3
:100C7000E15FFE4F518340835093670240936602C9
:100C80002CCF4091280C5091290CFA01E85FFE4FBF
:100C900080819181019709F020CFDA01A45FBE4FD6
:100CA0008C91833009F419CF11830083823009F4C9
:100CB0001DC18091640290916502FA01E15FFE4FCF
:100CC00091838083329711821082009709F4F1C0DA
:100CD000FC01E35FFE4F51834083509365024093D4
:100CE0006402FBCE4091280C5091290CF6CEDA011B
:100CF000A45FBE4F8C91823009F4D8C0833009F4D0
:100D00006BC0813009F4B5C011830083E6CE8091B9
:100D1000600290916102009709F4F8C040E050E051
:100D200007C0FC01E15FFE4F80819181009799F03F
:100D3000FC01EA5FFE4F20813181121613068CF30D
:100D4000452B09F000C1AC01FC01E15FFE4F808141
:100D50009181009769F74115510509F4D7C0509367
:100D6000290C4093280CFA01EA5FFE4F80819181A3
:100D7000DA01AE5FBE4F2D913C91820F931F91839C
:100D8000808380915702811125C0329780818093A2
:100D90005702CA017ECEFA01E45FFE4F80818330A4
:100DA00009F49BCE349711830083823009F0E9CE99
:100DB000329780819181DA01AE5FBE4F2D913C91D7
:100DC000821B930B91838083809157028F5F809366
:100DD0005702D7CECA015DCEDA01A15FBE4F119690
:100DE0001C921E9212971D921C9280915C0290910F
:100DF0005D02892B09F4ACC0A0915E02B0915F0244
:100E0000A15FBE4F4D935C9350935F0240935E028F
:100E10007BCF80916202909163024817590709F4D1
:100E2000A0C0CA01835F9E4F6C01809160029091C7
:100E30006102FA014817590709F4A9C0E15FFE4FA2
:100E4000D6018D919C91009741F0608171819C0148
:100E5000215F3E4FD9016D937C9320813181211513
:100E6000310509F45FCE235F3E4FD9018D939C93EA
:100E700059CEDA01A15FBE4F11961C921E921297B5
:100E80001D921C928091640290916502892B09F455
:100E900075C0A0916602B0916702A15FBE4F4D93ED
:100EA0005C9350936702409366022ECF10925702D4
:100EB0002BCF509365024093640250936702409396
:100EC00066020BCE8091770290917802892B09F00F
:100ED00064CE34971183008368CE509369024093A7
:100EE000680250936B0240936A02F7CD329780817B
:100EF00091811A972D913C91821B930B9183808352
:100F0000809157028F5F80935702E7CD80916402F2
:100F100090916502009781F0FC01E15FFE4F208116
:100F20003181309365022093640211821082909384
:100F3000290C8093280CADCDF092290CE092280C5E
:100F400083E19BE0A6CD87E0809300020E941B0214
:100F500050935D0240935C0250935F0240935E02A7
:100F6000D3CE6A0193EFC91A9EEFD90AD6018D91AB
:100F70009C91909363028093620257CF50936502D5
:100F8000409364025093670240936602BDCEE15FD6
:100F9000FE4F80819181909361028093600250CFD7
:100FA00083E0809300020E941B02CF93CFB7F89496
:100FB00090936F0280936E0270937102609370023F
:100FC00083E08093720282E090E090937A028093B3
:100FD00079020E940C0180916C0290916D02CFBF4A
:100FE000CF910895CF93CFB7F89490936F028093E9
:100FF0006E02709371026093700281E080937202BE
:1010000082E090E090937A02809379020E940C0132
:1010100080916C0290916D02CFBFCF9108950F9394
:101020001F93CF93CFB7F89490936F0280936E0283
:10103000709371026093700282E080937202509309
:1010400074024093730230937602209375021093DA
:1010500078020093770282E090E090937A02809386
:1010600079020E940C0180916C0290916D02CFBFB9
:10107000CF911F910F910895CF93DF931F92CDB71A
:10108000DEB78FB78983F89484E090E090937A027A
:10109000809379020E940C0189818FBF0F90DF91AC
:1010A000CF910895FC012091280C3091290CD90191
:1010B000A45FBE4F8C91823031F1D901A15FBE4F48
:1010C00011961C921E9212971D921C928081918102
:1010D000892BA1F0A281B381A15FBE4F2D933C93D8
:1010E00033832283F901E85FFE4F83E090E0918330
:1010F00080833996718360830C943C08318320830C
:1011000033832283EFCF88E0809300020E941B028A
:101110002FB7F894E091280CF091290CE65FFE4F70
:10112000808191812FBF089584B1807F84B984B17B
:10113000876084B9289A80E58CBD81E08DBD2898B0
:101140000895442371F0282FDB01FC0181918EBDAD
:101150000DB407FEFDCF8EB58D938E2F821B8417A5
:10116000A8F30895662359F0282FFC0181918EBDC4
:101170000DB407FEFDCF8E2F821B8617B8F308959E
:101180008EBD0DB407FEFDCF8EB50895CF93DF93CE
:10119000C2E0D1E088818F7B88838FEF0E94C008F6
:1011A000988190649883DF91CF910895CF92DF92D8
:1011B000FF920F931F93CF93DF931F92CDB7DEB7AC
:1011C0008B0192E0C92EDD24D394F60190819F7BA0
:1011D00090838F71806249830E94C008F82E4981F4
:1011E000642FC8010E94B208F60190819064908338
:1011F0008F2D0F90DF91CF911F910F91FF90DF9076
:10120000CF900895EF92FF920F931F93CF93DF93A8
:101210001F92CDB7DEB78B017A01909102019F7BBF
:101220009093020129830E94C0082981222341F062
:10123000E114F10491F0422FB701C8010E94A10806
:10124000809102018064809302010F90DF91CF9121
:101250001F910F91FF90EF900895622FC8010E9497
:10126000B208EECFEF92FF921F93CF93DF931F92BE
:101270001F92CDB7DEB79FEFFB01908322E0E22EF5
:10128000FF24F394F70190819F7B90838F71698392
:101290007A830E94C008182F41E069817A8180E03A
:1012A00090E00E94A108F701908190649083812FC3
:1012B0000F900F90DF91CF911F91FF90EF900895C5
:1012C000CF93DF931F92CDB7DEB7BE016F5F7F4F25
:1012D00080E00E943209898180FD15C08160898388
:1012E00041E0BE016F5F7F4F80E00E94D60883E03F
:1012F00091E00197F1F700C0000083E091E00197D1
:10130000F1F700C000000F90DF91CF9108951F9377
:10131000CF93DF931F92CDB7DEB7182F10922A0C10
:10132000E1E0F1E0908198619083A2E0B1E09C91CE
:101330009F7E9C939C91977F9C939C919F7D9C9377
:101340009081906290839081906490836C98EAE69B
:10135000F0E090819260908390819E7F9083EC9AE0
:10136000E49A8FED9BEA0197F1F700C000000E941C
:10137000940883E0898341E0BE016F5F7F4F0E9444
:10138000D60885E1898341E0BE016F5F7F4F84E02D
:101390000E94D608198341E0BE016F5F7F4F85E050
:1013A0000E94D60889E0898341E0BE016F5F7F4FCC
:1013B00086E00E94D6088FE0898341E0BE016F5F1E
:1013C0007F4F80E00E94D60880E7898341E0BE011C
:1013D0006F5F7F4F87E00E94D60820E040E050E03A
:1013E00060E070E081EE0E94020920E040E050E001
:1013F00060E070E082EE0E9402098FE39FE10197B6
:10140000F1F700C00000E2E0F1E0808180628083BB
:101410008081806180830F90DF91CF911F9108952B
:10142000CF92DF92EF92FF920F931F93CF93DF93B0
:101430001F92CDB7DEB78C016A018630910508F0A6
:1014400045C0009709F44CC08130910509F473C080
:1014500041E08AE0800F0E94D608BE016F5F7F4F97
:1014600081E00E943209EE24E394F12C002E01C0A9
:10147000EE0C0A94EAF789818E29898341E0BE0146
:101480006F5F7F4F81E00E94D608CD28D9F180E2BE
:10149000898341E0BE016F5F7F4F81E1800F0E9431
:1014A000D6088981F801E35DFD4F8083BE016F5F3F
:1014B0007F4F82E00E94320989818E29898341E031
:1014C000BE016F5F7F4F82E00E94D6080F90DF91D0
:1014D000CF911F910F91FF90EF90DF90CF900895E3
:1014E000FB01808180932302818180932402828189
:1014F0008093250283818093260284818093270232
:1015000045E0A7CF198241E0BE016F5F7F4F81E1C7
:10151000800F0E94D6088981F801E35DFD4F80832A
:10152000BE016F5F7F4F82E00E943209E0948981A3
:101530008E218983C4CF45E08CCFFC0180818093CC
:101540002802818180932902828180932A028381EB
:1015500080932B02848180932C0245E0BF0180E1BF
:101560000C94D608EF92FF920F931F93CF93DF93C3
:101570001F92CDB7DEB77C018B016430710520F47A
:1015800082E0E816F10440F00F90DF91CF911F91B7
:101590000F91FF90EF900895BE016F5F7F4F86E03F
:1015A0000E943209000F898186600823EF2809F024
:1015B0000860098341E0BE016F5F7F4F86E00E94B3
:1015C000D608E2CFEF92FF920F931F93CF93DF9352
:1015D0001F92CDB7DEB77C018B0181E080932A0C8E
:1015E000809102018F7D80930201BE016F5F7F4F6A
:1015F00080E00E943209898180FF15C08E7F898337
:1016000041E0BE016F5F7F4F80E00E94D60883E01B
:1016100091E00197F1F700C0000083E091E00197AD
:10162000F1F700C0000045E068E272E08AE00E9445
:10163000D6088091020188608093020120E240E098
:1016400050E0B70180EA0E940209809102018062A5
:1016500080930201012B81F480912A0C8111FCCF2F
:1016600080911F02909120020F90DF91CF911F91E6
:101670000F91FF90EF90089581E00F90DF91CF914F
:101680001F910F91FF90EF900895CF93DF93EC019E
:1016900010922A0C809102018F7D809302010E949A
:1016A000C6088E70282F30E035952795F901E35D47
:1016B000FD4F8081813280F42730D1F02081AE014E
:1016C000BE0181E60E9402090E94C6088E708E301B
:1016D00091F083E090E002C080E090E02091020170
:1016E00020622093020110922A0CDF91CF9108957D
:1016F00082E090E0F3CF84E090E0F0CF809121028F
:10170000909122020097C1F040E080FD4F5F9695D6
:1017100087950097D1F720E130E0241B310944E69A
:10172000429FC001439F900D1124929582958F7026
:1017300089279F708927089584E6089520E040E076
:1017400050E060E070E081EE0E94020920E040E09D
:1017500050E060E070E082EE0C9402091F920F925C
:101760000FB60F9211240BB60F922F933F934F9306
:101770005F936F937F938F939F93AF93BF93EF93F9
:10178000FF93CF93DF931F92CDB7DEB78091020115
:101790008F7E80930201809102018F7D80930201F0
:1017A0000E94C608898386FD6DC085FF4AC01092DD
:1017B0002A0C80912D0281116BC00E9460098091DA
:1017C000210290912202880F991F90932202809308
:1017D0002102809121029091220281609093220245
:1017E0008093210281E090E09093200280931F0279
:1017F00080E7898341E0BE016F5F7F4F87E00E94F1
:10180000D6088091020180618093020180910201DB
:101810008062809302010F90DF91CF91FF91EF9151
:10182000BF91AF919F918F917F916F915F914F91F8
:101830003F912F910F900BBE0F900FBE0F901F90F6
:10184000189584FFD5CF20E040E050E060E070E0E4
:1018500081EE0E94020910922A0C80912D028111C2
:101860001EC00E9460098091210290912202880F7F
:10187000991F9093220280932102109220021092CD
:101880001F02B6CF8E7086950E94D90C89818DCFAC
:1018900045E063E272E08AE00E94D6088ECF45E020
:1018A00063E272E08AE00E94D608DBCFEAE0F1E072
:1018B0004081A3E3B2E081E090E09C010C9002C083
:1018C000220F331F0A94E2F7422B4083EBE0F1E052
:1018D00020810C9002C0880F991F0A94E2F780952E
:1018E000822380832FEF81EE94E02150804090404E
:1018F000E1F700C00000208181E090E00090330219
:1019000002C0880F991F0A94E2F7282B20832FEF3B
:1019100081EE94E0215080409040E1F700C000004B
:1019200080E70E94870941E050E066E072E080E0D5
:1019300090E00E94100A63E070E080E090E00C9478
:10194000B20A279A15B86BE47CE080914D0C909117
:101950004E0C0E945208419A8BE29CE00E94450B7B
:101960000397D1F34198EFCF479A8BE29CE00E9416
:10197000450B8FE39FE10197F1F700C00000479806
:10198000F3CF0E94A00290934E0C80934D0C87B130
:101990008FEF87B960E070E086E59CE00E94D50794
:1019A00060E070E081EA9CE00E94F20780E090E055
:1019B0000895CF93DF931F92CDB7DEB7409AEFE93A
:1019C000FFE03197F1F700C0000089830E949E0B71
:1019D00040988981682F70E080914D0C90914E0C59
:1019E0000F90DF91CF910C94BA020E94AD04EE0FDC
:0E19F000FF1F0590F491E02D1994F894FFCF9D
:1019FE0002686A6C6E664A4A4A4A4A5B5B5B5B5B8C
:101A0E006C6C6C6C6C7D7D7D7D7DFFFFFFFFFF013F
:101A1E0000FF00E7E7E7E7E7E7E7E7E7E720200073
:061A2E00000000020000B0
:00000001FF
