:100000000C9495000C94B6000C94B6000C94B600B9
:100010000C94B6000C94B40B0C94B6000C94B6007F
:100020000C94B6000C94B6000C94B6000C94B60078
:100030000C94B6000C94B6000C94B6000C94B60068
:100040000C94B6000C9479010C94B6000C94B60094
:100050000C94B6000C94B6000C94B6000C94B60048
:100060000C94B6000C94B6000C94B6000C94B60038
:100070000C94B6000C94B6000C94B6000C94B60028
:100080000C94B6000C94B6000C94B6000C94B60018
:100090000C94B6000C94B6000C94B6000C94B60008
:1000A0000C94B6000C94B6000C94B6000C94B600F8
:1000B0000C94B6000C94B6000C94B6000C94B600E8
:1000C0000C94B6000C94B6000C94B6000C94B600D8
:1000D0000C94B6000C94B6000C94B6000C94B600C8
:1000E0000C94B6007806DF05B10583056705470661
:1000F00078060C94060D0C945C0C0C94D40C0C94A7
:10010000DF050C9478060C94B1050C9447060C940A
:1001100083050C94B8000C94B70D0C944E0D0C9400
:10012000730C0C9467050C946B0111241FBECFEF68
:10013000D1E2DEBFCDBF00E00CBF12E0A0E0B2E034
:10014000EEE7FCE100E00BBF02C007900D92A43384
:10015000B107D9F72CE0A4E3B2E001C01D92A233AD
:10016000B207E1F70E94350E0C943D0E0C9400008E
:10017000FFCFFF93FCB7FF93FFB7F894FF93EF9384
:10018000DF93CF93BF93AF939F938F937F936F939F
:100190005F934F933F932F931F930F93FF92EF9291
:1001A000DF92CF92BF92AF929F928F927F926F9287
:1001B0005F924F923F922F921F920F928DB79EB7F0
:1001C0009093250C8093240CE091260CF091270C41
:1001D000F395808191819EBF8DBF0F901F902F90CE
:1001E0003F904F905F906F907F908F909F90AF90D7
:1001F000BF90CF90DF90EF90FF900F911F912F91C4
:100200003F914F915F916F917F918F919F91AF91AE
:10021000BF91CF91DF91EF91FF91FFBFFF91FCBFA5
:10022000FF910895FF93FCB7FF93FFB7F894FF93F6
:10023000EF93DF93CF93BF93AF939F938F937F936E
:100240006F935F934F933F932F931F930F93FF925F
:10025000EF92DF92CF92BF92AF929F928F927F9256
:100260006F925F924F923F922F921F920F92E09166
:10027000260CF091270C8DB79EB7F3959183808360
:100280008091240C9091250C9EBF8DBF0F901F90E4
:100290002F903F904F905F906F907F908F909F90A6
:1002A000AF90BF90CF90DF90EF90FF900F911F9194
:1002B0002F913F914F915F916F917F918F919F917E
:1002C000AF91BF91CF91DF91EF91FF91FFBFFF9170
:1002D000FCBFFF910895CF93CFB7F89483E090E0EF
:1002E00090937802809377020E941201CFBFCF9142
:1002F0000895FF93FCB7FF93FFB7F894F068FF935E
:10030000EF93DF93CF93BF93AF939F938F937F939D
:100310006F935F934F933F932F931F930F93FF928E
:10032000EF92DF92CF92BF92AF929F928F927F9285
:100330006F925F924F923F922F921F920F92E09195
:10034000260CF091270C8DB79EB7F395918380838F
:100350008091240C9091250C9EBF8DBF81E090E090
:100360009093780280937702E8E8F0E080819181B1
:10037000805F984D918380838091580290915902BB
:10038000805F984D90935902809358028091560255
:100390009091570205969093570280935602809150
:1003A000240C9091250C9EBF8DBF0F901F902F9015
:1003B0003F904F905F906F907F908F909F90AF9005
:1003C000BF90CF90DF90EF90FF900F911F912F91F2
:1003D0003F914F915F916F917F918F919F91AF91DD
:1003E000BF91CF91DF91EF91FF91FFBFFF91FCBFD4
:1003F000FF910895809156029091570220918400B8
:10040000309185004091580250915902241B350BC0
:10041000203D47E0340778F0203A4FE0340748F0B9
:10042000203747E1340758F020343F4130F001973E
:1004300008950497089505970895029708950397DE
:100440000895F894279A809100023091000282303A
:1004500008F47AC0315020E825B98091000282303A
:1004600008F465C088E29FE748E351E091504040BE
:100470005040E1F700C000008150A9F715B884E1B1
:100480006FE798E341E0615090404040E1F700C0E1
:1004900000008150A9F725B988E25FE768E391E0A1
:1004A000515060409040E1F700C000008150A9F732
:1004B00015B88CE34FE758E361E04150504060408D
:1004C000E1F700C000008150A9F73323F1F090E07C
:1004D00025B98AE04FE758E361E041505040604061
:1004E000E1F700C000008150A9F715B88AE04FE796
:1004F00058E361E0415050406040E1F700C0000027
:100500008150A9F79F5F9313E3CF84E19FE748E30E
:1005100051E0915040405040E1F700C00000815050
:10052000A9F725B980910002823008F09BCF84E6BC
:100530004FE758E361E0415050406040E1F700C0B0
:1005400000008150A9F7B4CF3F5F85CF809134027E
:10055000883088F491E0980F9093340290E0880FEF
:10056000991F880F991F8B5C9D4FFC01118210828F
:1005700013821282089581E0809300020E9421027A
:100580004F925F926F927F928F929F92AF92BF92A3
:10059000CF92DF92EF92FF920F931F93CF93DF934F
:1005A0002C01DC012D913C9111972115310509F4A5
:1005B0007AC0F901E15FFE4F808191818D939C9318
:1005C000118210828090260C9090270C00915A0284
:1005D00010915B0270905C0260905D0280916202FB
:1005E00090916302A0906402B0906502C12CD12C5E
:1005F00052E0E52EF12CB4EF8B1ABEEF9B0A0FC030
:10060000E2012881398121153105D9F1F901E15F34
:10061000FE4F408151815983488311821082D90154
:10062000A85FBE4F4D915C9111974330510541F742
:10063000A9014F5E5E4FEA0148815981EA01798341
:1006400068831196FC92EE9214964C914330E1F13E
:10065000413009F065C091838083F901E35FFE4F6B
:1006600011821082009709F447C0FC01E35FFE4F3E
:1006700031832083C901E2012881398121153105A7
:1006800029F610935B0200935A0270925C0260920A
:100690005D029093630280936202A0926402B09222
:1006A0006502CD2861F5DF91CF911F910F91FF90E9
:1006B000EF90DF90CF90BF90AF909F908F907F9002
:1006C0006F905F904F900895D4014C91433019F092
:1006D000CC24C394D12C11830083F901E35FFE4F36
:1006E0001182108201151105B1F0F801E35FFE4F90
:1006F00031832083890184CF5901C90181CFCFB7CC
:10070000F89485E090E090937802809377020E94BD
:100710001201CFBFC8CF722E632E022F132F70CFBE
:1007200010935B0200935A0270925C0260925D0229
:100730009093630280936202A0926402B092650279
:1007400089E0809300020E942102809166029091CC
:100750006702009709F4E0C020917002223009F48A
:1007600070C020917002222309F4FAC0FC01E15FFD
:10077000FE4F2081318130936702209366021182FF
:1007800010829C0129523F4FF90140E041934F5F95
:100790004F31E1F745E5FC01EA50FF4F40834EEE53
:1007A000319640837E97108240E87F964083329650
:1007B000108240916C0250916D02319650834091AD
:1007C0006C0250916D0231964083319610824BE657
:1007D00051E03196508331964083319631832083A6
:1007E00022E030E038963183208320916E023091F0
:1007F0006F023296318320832091700232962083DB
:1008000020917102309172023A97318320832091B6
:1008100073023091740232963183208320917502E5
:1008200030917602329631832083209170022230FB
:1008300009F452C0233099F1213099F081E090E021
:10084000089540917102509172022091730230918B
:1008500074024217530708F084CF109200020E94DE
:100860002102FC01E15FFE4F11821082329711825A
:1008700010822091620230916302232B09F465C03B
:10088000E0916402F0916502E15FFE4F9183808305
:10089000909365028093640281E090E00895FC01EA
:1008A000E15FFE4F118210823297118210822091F7
:1008B0005A0230915B02232BE9F1E0915C02F09146
:1008C0005D02E15FFE4F9183808390935D02809390
:1008D0005C0281E090E00895FC01E15FFE4F11822F
:1008E000108232971182108220915E0230915F0255
:1008F000232BA9F02091600230916102D901A15F00
:10090000BE4F8D939C93318320839093610280939B
:10091000600281E090E0089580E090E00895909377
:100920005F0280935E02909361028093600281E097
:1009300090E0089590935B0280935A0290935D0239
:1009400080935C0281E090E008959093630280932D
:100950006202909365028093640281E090E00895C2
:1009600081E19BE00ECF80918100826080938100C5
:10097000E1E8F3E011821082CF010B969087878324
:10098000ED5EFE4F8BE0E630F807A1F710920E0BFC
:1009900010920D0BC9E7D2E0D0936702C0936602B4
:1009A0008EEF99E0909369028093680288EB90E063
:1009B00090936D0280936C02109270020E94A503C6
:1009C00087EB9DE090936D0280936C0283E08093AF
:1009D00070020E94A503D093270CC093260C81E0DF
:1009E00090E0909382038093810380915A029091CA
:1009F0005B02009759F0FC01E15FFE4F808191811D
:100A000090935B0280935A021182108210925702D7
:100A10001092560280916F00826080936F008091E7
:100A200084009091850090935902809358028091A0
:100A3000580290915902805F984D9093890080935D
:100A4000880082E086BB109234024091260C5091BF
:100A5000270CC1E0D0E061E1E62E6BE0F62E02E06B
:100A600010E0FA01E85FFE4F80819181019709F45F
:100A700046C080915A0290915B02009709F44DC1E3
:100A8000FC01E15FFE4F2081318130935B022093B6
:100A90005A02118210829093270C8093260CFC013D
:100AA000E85FFE4FD183C0830E94B9008091770236
:100AB000909178028730910528F086E080930002BB
:100AC0000E942102FC01EE58FF4F0C94370E40911A
:100AD000260C5091270CFA01E85FFE4F808191812E
:100AE000019709F40AC11092780210927702FA0174
:100AF000E85FFE4F80819181019709F0BACF4151A3
:100B00005B4091F6B6CF4091260C5091270CABE09C
:100B100041315A0741F3FA01E85FFE4F118210821A
:100B200034968081823009F47AC131966F01329611
:100B300011821082F60111821082809166029091DA
:100B40006702892B09F4CFC1E0916802F091690234
:100B5000E15FFE4F518340835093690240936802E6
:100B6000C2CF0E94A50390936B0280936A0280918A
:100B70006A0290916B02892B09F418C2809170026D
:100B80004091260C5091270C833009F40AC1FA01D8
:100B9000E45FFE4F8081813009F0A5CF8091700223
:100BA000823009F495C1FA01E85FFE4F808191819E
:100BB000029709F098CFFA01E15FFE4F4FC02091F4
:100BC0005E0230915F024091260C5091270CFA0191
:100BD000E45FFE4F60812115310591F1809155024E
:100BE0006330D1F08150809355028091550281117C
:100BF00013C0623089F484E0809300020E942102D5
:100C00004217530709F0A5C1F901E15FFE4F2081AA
:100C1000318121153105A1F0F901EA5FFE4F808194
:100C20009181019791838083892B71F7623041F321
:100C3000F901E15FFE4F208131812115310561F716
:100C4000613009F050CFFA01E85FFE4F8081918159
:100C5000019709F048CF11830083379611821082E3
:100C60003297118210828091620290916302892BE7
:100C700009F425C1E0916402F0916502E15FFE4F45
:100C80005183408350936502409364022CCF40917E
:100C9000260C5091270CFA01E85FFE4F808191816C
:100CA000019709F020CFDA01A45FBE4F8C91833009
:100CB00009F419CF11830083823009F41DC180919A
:100CC000620290916302FA01E15FFE4F918380839B
:100CD000329711821082009709F4F1C0FC01E35FA2
:100CE000FE4F518340835093630240936202FBCED8
:100CF0004091260C5091270CF6CEDA01A45FBE4F2E
:100D00008C91823009F4D8C0833009F46BC08130F3
:100D100009F4B5C011830083E6CE80915E02909104
:100D20005F02009709F4F8C040E050E007C0FC0102
:100D3000E15FFE4F80819181009799F0FC01EA5FAD
:100D4000FE4F20813181121613068CF3452B09F0DA
:100D500000C1AC01FC01E15FFE4F808191810097F1
:100D600069F74115510509F4D7C05093270C4093FA
:100D7000260CFA01EA5FFE4F80819181DA01AE5FB5
:100D8000BE4F2D913C91820F931F91838083809160
:100D90005502811125C03297808180935502CA0186
:100DA0007ECEFA01E45FFE4F8081833009F49BCE52
:100DB000349711830083823009F0E9CE3297808125
:100DC0009181DA01AE5FBE4F2D913C91821B930B56
:100DD00091838083809155028F5F80935502D7CE97
:100DE000CA015DCEDA01A15FBE4F11961C921E9220
:100DF00012971D921C9280915A0290915B02892B4E
:100E000009F4ACC0A0915C02B0915D02A15FBE4F3D
:100E10004D935C9350935D0240935C027BCF809135
:100E20006002909161024817590709F4A0C0CA01F5
:100E3000835F9E4F6C0180915E0290915F02FA0188
:100E40004817590709F4A9C0E15FFE4FD6018D91FB
:100E50009C91009741F0608171819C01215F3E4F20
:100E6000D9016D937C93208131812115310509F4DD
:100E70005FCE235F3E4FD9018D939C9359CEDA010B
:100E8000A15FBE4F11961C921E9212971D921C924A
:100E90008091620290916302892B09F475C0A09140
:100EA0006402B0916502A15FBE4F4D935C93509375
:100EB0006502409364022ECF109255022BCF5093BF
:100EC00063024093620250936502409364020BCE2A
:100ED0008091750290917602892B09F064CE349747
:100EE0001183008368CE509367024093660250934B
:100EF000690240936802F7CD3297808191811A97F9
:100F00002D913C91821B930B91838083809155029C
:100F10008F5F80935502E7CD8091620290916302CA
:100F2000009781F0FC01E15FFE4F20813181309319
:100F3000630220936202118210829093270C8093A7
:100F4000260CADCDF092270CE092260C81E19BE0BF
:100F5000A6CD87E0809300020E94210250935B029D
:100F600040935A0250935D0240935C02D3CE6A01D3
:100F700093EFC91A9EEFD90AD6018D919C91909357
:100F800061028093600257CF5093630240936202E4
:100F90005093650240936402BDCEE15FFE4F8081B5
:100FA000918190935F0280935E0250CF83E08093A3
:100FB00000020E942102CF93CFB7F89490936D0264
:100FC00080936C0270936F0260936E0283E0809353
:100FD000700282E090E090937802809377020E9402
:100FE000120180916A0290916B02CFBFCF91089558
:100FF000CF93CFB7F89490936D0280936C02709367
:101000006F0260936E0281E08093700282E090E054
:1010100090937802809377020E94120180916A0275
:1010200090916B02CFBFCF9108950F931F93CF93F1
:10103000CFB7F89490936D0280936C0270936F0217
:1010400060936E0282E0809370025093720240932C
:10105000710230937402209373021093760200930E
:10106000750282E090E090937802809377020E946C
:10107000120180916A0290916B02CFBFCF911F91B4
:101080000F910895CF93DF931F92CDB7DEB78FB73F
:101090008983F89484E090E09093780280937702BB
:1010A0000E94120189818FBF0F90DF91CF91089527
:1010B000FC012091260C3091270CD901A45FBE4F72
:1010C0008C91823031F1D901A15FBE4F11961C92F3
:1010D0001E9212971D921C9280819181892BA1F002
:1010E000A281B381A15FBE4F2D933C9333832283B2
:1010F000F901E85FFE4F83E090E0918380833996A9
:10110000718360830C94420831832083338322836C
:10111000EFCF88E0809300020E9421022FB7F8945D
:10112000E091260CF091270CE65FFE4F80819181C3
:101130002FBF089584B1807F84B984B1876084B95A
:10114000289A80E58CBD81E08DBD289808954423C0
:1011500071F0282FDB01FC0181918EBD0DB407FEDB
:10116000FDCF8EB58D938E2F821B8417A8F3089523
:10117000662359F0282FFC0181918EBD0DB407FE26
:10118000FDCF8E2F821B8617B8F308958EBD0DB448
:1011900007FEFDCF8EB50895CF93DF93C2E0D1E077
:1011A00088818F7B88838FEF0E94C6089881906426
:1011B0009883DF91CF910895CF92DF92FF920F93A2
:1011C0001F93CF93DF931F92CDB7DEB78B0192E0D1
:1011D000C92EDD24D394F60190819F7B90838F717B
:1011E000806249830E94C608F82E4981642FC80195
:1011F0000E94B808F6019081906490838F2D0F9023
:10120000DF91CF911F910F91FF90DF90CF900895C4
:10121000EF92FF920F931F93CF93DF931F92CDB75F
:10122000DEB78B017A01909102019F7B90930201BE
:1012300029830E94C6082981222341F0E114F10488
:1012400091F0422FB701C8010E94A70880910201C6
:101250008064809302010F90DF91CF911F910F91D5
:10126000FF90EF900895622FC8010E94B808EECF5A
:10127000EF92FF921F93CF93DF931F921F92CDB7F0
:10128000DEB79FEFFB01908322E0E22EFF24F39470
:10129000F70190819F7B90838F7169837A830E948D
:1012A000C608182F41E069817A8180E090E00E94B1
:1012B000A708F701908190649083812F0F900F9081
:1012C000DF91CF911F91FF90EF900895CF93DF931F
:1012D0001F92CDB7DEB7BE016F5F7F4F80E00E94E7
:1012E0003809898180FD15C08160898341E0BE0194
:1012F0006F5F7F4F80E00E94DC0883E091E0019700
:10130000F1F700C0000083E091E00197F1F700C021
:1013100000000F90DF91CF9108951F93CF93DF933B
:101320001F92CDB7DEB7182F1092280CE1E0F1E044
:10133000908198619083A2E0B1E09C919F7E9C9304
:101340009C91977F9C939C919F7D9C9390819062B0
:1013500090839081906490836C98EAE6F0E09081AD
:101360009260908390819E7F9083EC9AE49A8FEDB7
:101370009BEA0197F1F700C000000E949A0883E001
:10138000898341E0BE016F5F7F4F0E94DC0885E1E9
:10139000898341E0BE016F5F7F4F84E00E94DC08DB
:1013A000198341E0BE016F5F7F4F85E00E94DC083A
:1013B00089E0898341E0BE016F5F7F4F86E00E9434
:1013C000DC088FE0898341E0BE016F5F7F4F80E0E2
:1013D0000E94DC0880E7898341E0BE016F5F7F4F98
:1013E00087E00E94DC0820E040E050E060E070E030
:1013F00081EE0E94080920E040E050E060E070E0EB
:1014000082EE0E9408098FE39FE10197F1F700C087
:101410000000E2E0F1E08081806280838081806171
:1014200080830F90DF91CF911F910895CF92DF922B
:10143000EF92FF920F931F93CF93DF931F92CDB73D
:10144000DEB78C016A018630910508F045C000972F
:1014500009F44CC08130910509F473C041E08AE081
:10146000800F0E94DC08BE016F5F7F4F81E00E9409
:101470003809EE24E394F12C002E01C0EE0C0A94FE
:10148000EAF789818E29898341E0BE016F5F7F4F32
:1014900081E00E94DC08CD28D9F180E2898341E017
:1014A000BE016F5F7F4F81E1800F0E94DC08898160
:1014B000F801E35DFD4F8083BE016F5F7F4F82E0E7
:1014C0000E94380989818E29898341E0BE016F5FBE
:1014D0007F4F82E00E94DC080F90DF91CF911F9137
:1014E0000F91FF90EF90DF90CF900895FB018081E6
:1014F000809323028181809324028281809325023C
:1015000083818093260284818093270245E0A7CFC0
:10151000198241E0BE016F5F7F4F81E1800F0E9421
:10152000DC088981F801E35DFD4F8083BE016F5FB8
:101530007F4F82E00E943809E09489818E2189835F
:10154000C4CF45E08CCFFC0180818093280281814B
:1015500080932902828180932A02838180932B02C7
:10156000848180932C0245E0BF0180E10C94DC086B
:10157000EF92FF920F931F93CF93DF931F92CDB7FC
:10158000DEB77C018B016430710520F482E0E8163F
:10159000F10440F00F90DF91CF911F910F91FF90D8
:1015A000EF900895BE016F5F7F4F86E00E9438097B
:1015B000000F898186600823EF2809F008600983FD
:1015C00041E0BE016F5F7F4F86E00E94DC08E2CF02
:1015D000EF92FF920F931F93CF93DF931F92CDB79C
:1015E000DEB77C018B0181E08093280C80910201A1
:1015F0008F7D80930201BE016F5F7F4F80E00E946C
:101600003809898180FF15C08E7F898341E0BE0142
:101610006F5F7F4F80E00E94DC0883E091E00197DC
:10162000F1F700C0000083E091E00197F1F700C0FE
:10163000000045E068E272E08AE00E94DC088091E8
:10164000020188608093020120E240E050E0B7018F
:1016500080EA0E9408098091020180628093020161
:10166000012B81F48091280C8111FCCF80911F0205
:10167000909120020F90DF91CF911F910F91FF90D9
:10168000EF90089581E00F90DF91CF911F910F911E
:10169000FF90EF900895CF93DF93EC011092280C08
:1016A000809102018F7D809302010E94CC088E7090
:1016B000282F30E035952795F901E35DFD4F8081B6
:1016C000813280F42730D1F02081AE01BE0181E665
:1016D0000E9408090E94CC088E708E3091F083E041
:1016E00090E002C080E090E020910201206220930F
:1016F00002011092280CDF91CF91089582E090E0D2
:10170000F3CF84E090E0F0CF80912102909122020B
:101710000097C1F040E080FD4F5F96958795009758
:10172000D1F720E130E0241B310944E6429FC0019B
:10173000439F900D1124929582958F7089279F70F9
:101740008927089584E6089520E040E050E060E0B5
:1017500070E081EE0E94080920E040E050E060E087
:1017600070E082EE0C9408091F920F920FB60F9250
:1017700011240BB60F922F933F934F935F936F9368
:101780007F938F939F93AF93BF93EF93FF93CF93E9
:10179000DF931F92CDB7DEB7809102018F7E8093D9
:1017A0000201809102018F7D809302010E94CC088A
:1017B000898386FD6DC085FF4AC01092280C8091F8
:1017C0002D0281116BC00E946609809121029091C7
:1017D0002202880F991F9093220280932102809108
:1017E0002102909122028160909322028093210233
:1017F00081E090E09093200280931F0280E789832C
:1018000041E0BE016F5F7F4F87E00E94DC0880915E
:1018100002018061809302018091020180628093C5
:1018200002010F90DF91CF91FF91EF91BF91AF91A6
:101830009F918F917F916F915F914F913F912F91E8
:101840000F900BBE0F900FBE0F901F90189584FF46
:10185000D5CF20E040E050E060E070E081EE0E94F3
:1018600008091092280C80912D0281111EC00E943F
:1018700066098091210290912202880F991F90930E
:101880002202809321021092200210921F02B6CFF2
:101890008E7086950E942A0E89818DCF45E063E285
:1018A00072E08AE00E94DC088ECF45E063E272E0DD
:1018B0008AE00E94DC08DBCF279A15B880E090E030
:1018C000892B31F00E94420880E090E0892BD1F70B
:1018D00060E070E08091300C9091310C0E94C00269
:1018E00081E090E0EDCF83B3876083BB80910A01F4
:1018F000806A80930A01579A84B3887F84BB809161
:101900000B018F7580930B015F9806C0817089274A
:10191000822784BB0E9442089BB12BB180912C0C82
:10192000817081958227807889278BB994B324B3FD
:1019300080912D0C8170819582278270892784BBCC
:1019400090910B0120910B0180912E0C817081955B
:1019500082278078892780930B0190910B01209139
:101960000B0180912F0C81708195822780728927CD
:1019700080930B0190910B0120910B0181E030913C
:101980002B0C313009F080E0819582278074892703
:1019900080930B0124B384B391E030912B0C313050
:1019A00009F0B4CF90E0B2CFCF93DF93CDB7DEB7DD
:1019B000A2970FB6F894DEBF0FBECDBF15E0BE01F3
:1019C0006F5D7F4F8091300C9091310C0E945808D0
:1019D00029A13AA1C901880F991F880F991F820F69
:1019E000931F8A5F9D4F0E94A30A1982EBE2FCE0DD
:1019F000DE011496812F01900D928A95E1F761E046
:101A000070E0CE0101960E94E80AD9CFCF93DF9310
:101A1000CDB7DEB7A2970FB6F894DEBF0FBECDBF2D
:101A2000BE016F5D7F4F8091290C90912A0C0E941E
:101A30005808CE0101960E944B0B9C01235031099E
:101A40002230310568F72981213051F43D81EC8144
:101A5000F0E0E55DF34F218121FD02C0317031835B
:101A6000039739F3DDCF20917C00982F9770207F6A
:101A7000922B90937C0090917B008870977F892BAC
:101A800080937B0080917A00806480937A008091BB
:101A90007A0086FDFCCF8091790008952698809188
:101AA0007A00876080937A0080917C0080648093C4
:101AB0007C0080917C00806280937C0080917A0021
:101AC000806880937A0080917A00806480937A00A5
:101AD000C1E0409A80E090E00E94330D843180F1B3
:101AE0008C3E40F0429A8FE39FE10197F1F700C0EE
:101AF0000000429881E090E00E94330D843170F143
:101B00008C3E40F0449A8FE39FE10197F1F700C0CB
:101B1000000044981E990CC080912B0C813041F03C
:101B2000C0932B0C10922C0C10922D0C10922E0C9A
:101B30004098409A80E090E00E94330D843180F616
:101B4000419A8FE39FE10197F1F700C000004198AF
:101B500081E090E00E94330D843190F6439A8FE348
:101B60009FE10197F1F700C000004398D3CF0F9396
:101B70001F93EAE0F1E0808184608083EBE0F1E094
:101B800080818B7F80832FEF89E698E12150804010
:101B90009040E1F700C000008081846080832FEFD7
:101BA00089E698E1215080409040E1F700C00000B4
:101BB000809105020E948D0941E050E06AE172E0E7
:101BC00080E090E00E94160A63E070E080E090E020
:101BD0000E94B80A10922B0C10922C0C10922D0C13
:101BE00010922E0C0E94A6029093310C8093300C20
:101BF0000E94A60290932A0C8093290C87B18FEF44
:101C000087B960E070E084ED9CE00E94DB0760E053
:101C100070E086E09DE00E94DB0708EE13E025E01F
:101C200030E044E150E060E070E08CE59CE00E9430
:101C3000150860E070E08EE49DE00E94F80760E027
:101C400070E083E79CE00E94F80780E090E01F913D
:101C50000F91089595B1905895B9682F70E08091D3
:101C6000290C90912A0C0C94C0020E94B304EE0F30
:0E1C7000FF1F0590F491E02D1994F894FFCF1A
:101C7E0002686A6C6E664A4A4A4A4A4B4B4B4B4B59
:101C8E004C4C4C4C4C4D4D4D4D4DFFFFFFFFFF014D
:101C9E0000FF00E7E7E7E7E7E7E7E7E7E7202000F1
:041CAE000000000032
:00000001FF
